{
  "_format": "hh3-artifact-1",
  "contractName": "PactlyReputation",
  "sourceName": "contracts/PactlyReputation.sol",
  "abi": [
    {
      "inputs": [],
      "stateMutability": "nonpayable",
      "type": "constructor"
    },
    {
      "inputs": [
        {
          "internalType": "address",
          "name": "target",
          "type": "address"
        }
      ],
      "name": "AddressEmptyCode",
      "type": "error"
    },
    {
      "inputs": [
        {
          "internalType": "address",
          "name": "implementation",
          "type": "address"
        }
      ],
      "name": "ERC1967InvalidImplementation",
      "type": "error"
    },
    {
      "inputs": [],
      "name": "ERC1967NonPayable",
      "type": "error"
    },
    {
      "inputs": [],
      "name": "FailedCall",
      "type": "error"
    },
    {
      "inputs": [],
      "name": "InvalidInitialization",
      "type": "error"
    },
    {
      "inputs": [],
      "name": "NotEscrow",
      "type": "error"
    },
    {
      "inputs": [],
      "name": "NotInitializing",
      "type": "error"
    },
    {
      "inputs": [
        {
          "internalType": "address",
          "name": "owner",
          "type": "address"
        }
      ],
      "name": "OwnableInvalidOwner",
      "type": "error"
    },
    {
      "inputs": [
        {
          "internalType": "address",
          "name": "account",
          "type": "address"
        }
      ],
      "name": "OwnableUnauthorizedAccount",
      "type": "error"
    },
    {
      "inputs": [],
      "name": "UUPSUnauthorizedCallContext",
      "type": "error"
    },
    {
      "inputs": [
        {
          "internalType": "bytes32",
          "name": "slot",
          "type": "bytes32"
        }
      ],
      "name": "UUPSUnsupportedProxiableUUID",
      "type": "error"
    },
    {
      "anonymous": false,
      "inputs": [
        {
          "indexed": true,
          "internalType": "address",
          "name": "user",
          "type": "address"
        }
      ],
      "name": "AcceptedRecorded",
      "type": "event"
    },
    {
      "anonymous": false,
      "inputs": [
        {
          "indexed": true,
          "internalType": "address",
          "name": "escrow",
          "type": "address"
        }
      ],
      "name": "EscrowSet",
      "type": "event"
    },
    {
      "anonymous": false,
      "inputs": [
        {
          "indexed": true,
          "internalType": "address",
          "name": "user",
          "type": "address"
        }
      ],
      "name": "GhostedRecorded",
      "type": "event"
    },
    {
      "anonymous": false,
      "inputs": [
        {
          "indexed": false,
          "internalType": "uint64",
          "name": "version",
          "type": "uint64"
        }
      ],
      "name": "Initialized",
      "type": "event"
    },
    {
      "anonymous": false,
      "inputs": [
        {
          "indexed": true,
          "internalType": "address",
          "name": "user",
          "type": "address"
        }
      ],
      "name": "MetRecorded",
      "type": "event"
    },
    {
      "anonymous": false,
      "inputs": [
        {
          "indexed": true,
          "internalType": "address",
          "name": "previousOwner",
          "type": "address"
        },
        {
          "indexed": true,
          "internalType": "address",
          "name": "newOwner",
          "type": "address"
        }
      ],
      "name": "OwnershipTransferred",
      "type": "event"
    },
    {
      "anonymous": false,
      "inputs": [
        {
          "indexed": true,
          "internalType": "address",
          "name": "user",
          "type": "address"
        }
      ],
      "name": "ProposedRecorded",
      "type": "event"
    },
    {
      "anonymous": false,
      "inputs": [
        {
          "indexed": true,
          "internalType": "address",
          "name": "user",
          "type": "address"
        }
      ],
      "name": "SafetyFlagRecorded",
      "type": "event"
    },
    {
      "anonymous": false,
      "inputs": [
        {
          "indexed": true,
          "internalType": "address",
          "name": "implementation",
          "type": "address"
        }
      ],
      "name": "Upgraded",
      "type": "event"
    },
    {
      "inputs": [],
      "name": "UPGRADE_INTERFACE_VERSION",
      "outputs": [
        {
          "internalType": "string",
          "name": "",
          "type": "string"
        }
      ],
      "stateMutability": "view",
      "type": "function"
    },
    {
      "inputs": [],
      "name": "escrow",
      "outputs": [
        {
          "internalType": "address",
          "name": "",
          "type": "address"
        }
      ],
      "stateMutability": "view",
      "type": "function"
    },
    {
      "inputs": [
        {
          "internalType": "address",
          "name": "initialOwner",
          "type": "address"
        }
      ],
      "name": "initialize",
      "outputs": [],
      "stateMutability": "nonpayable",
      "type": "function"
    },
    {
      "inputs": [],
      "name": "owner",
      "outputs": [
        {
          "internalType": "address",
          "name": "",
          "type": "address"
        }
      ],
      "stateMutability": "view",
      "type": "function"
    },
    {
      "inputs": [],
      "name": "proxiableUUID",
      "outputs": [
        {
          "internalType": "bytes32",
          "name": "",
          "type": "bytes32"
        }
      ],
      "stateMutability": "view",
      "type": "function"
    },
    {
      "inputs": [
        {
          "internalType": "address",
          "name": "user",
          "type": "address"
        }
      ],
      "name": "recordAccepted",
      "outputs": [],
      "stateMutability": "nonpayable",
      "type": "function"
    },
    {
      "inputs": [
        {
          "internalType": "address",
          "name": "user",
          "type": "address"
        }
      ],
      "name": "recordGhosted",
      "outputs": [],
      "stateMutability": "nonpayable",
      "type": "function"
    },
    {
      "inputs": [
        {
          "internalType": "address",
          "name": "user",
          "type": "address"
        }
      ],
      "name": "recordMet",
      "outputs": [],
      "stateMutability": "nonpayable",
      "type": "function"
    },
    {
      "inputs": [
        {
          "internalType": "address",
          "name": "user",
          "type": "address"
        }
      ],
      "name": "recordProposed",
      "outputs": [],
      "stateMutability": "nonpayable",
      "type": "function"
    },
    {
      "inputs": [
        {
          "internalType": "address",
          "name": "user",
          "type": "address"
        }
      ],
      "name": "recordSafetyFlag",
      "outputs": [],
      "stateMutability": "nonpayable",
      "type": "function"
    },
    {
      "inputs": [],
      "name": "renounceOwnership",
      "outputs": [],
      "stateMutability": "nonpayable",
      "type": "function"
    },
    {
      "inputs": [
        {
          "internalType": "address",
          "name": "_escrow",
          "type": "address"
        }
      ],
      "name": "setEscrow",
      "outputs": [],
      "stateMutability": "nonpayable",
      "type": "function"
    },
    {
      "inputs": [
        {
          "internalType": "address",
          "name": "user",
          "type": "address"
        }
      ],
      "name": "statsOf",
      "outputs": [
        {
          "components": [
            {
              "internalType": "uint64",
              "name": "datesProposed",
              "type": "uint64"
            },
            {
              "internalType": "uint64",
              "name": "datesAccepted",
              "type": "uint64"
            },
            {
              "internalType": "uint64",
              "name": "datesMet",
              "type": "uint64"
            },
            {
              "internalType": "uint64",
              "name": "datesGhosted",
              "type": "uint64"
            },
            {
              "internalType": "uint64",
              "name": "safetyFlagsReceived",
              "type": "uint64"
            }
          ],
          "internalType": "struct PactlyReputation.Stats",
          "name": "",
          "type": "tuple"
        }
      ],
      "stateMutability": "view",
      "type": "function"
    },
    {
      "inputs": [
        {
          "internalType": "address",
          "name": "newOwner",
          "type": "address"
        }
      ],
      "name": "transferOwnership",
      "outputs": [],
      "stateMutability": "nonpayable",
      "type": "function"
    },
    {
      "inputs": [
        {
          "internalType": "address",
          "name": "newImplementation",
          "type": "address"
        },
        {
          "internalType": "bytes",
          "name": "data",
          "type": "bytes"
        }
      ],
      "name": "upgradeToAndCall",
      "outputs": [],
      "stateMutability": "payable",
      "type": "function"
    }
  ],
  "bytecode": "0x60a060405230608052348015610013575f5ffd5b5061001c610021565b6100d3565b7ff0c57e16840df040f15088dc2f81fe391c3923bec73e23a9662efc9c229c6a00805468010000000000000000900460ff16156100715760405163f92ee8a960e01b815260040160405180910390fd5b80546001600160401b03908116146100d05780546001600160401b0319166001600160401b0390811782556040519081527fc7f505b2f371ae2175ee4913f4499e1f2633a7b5936321eed1cdaeb6115181d29060200160405180910390a15b50565b60805161101a6100f95f395f8181610998015281816109c10152610b05015261101a5ff3fe6080604052600436106100e4575f3560e01c80638da5cb5b11610087578063c4d66de811610057578063c4d66de814610384578063cf33ae9d146103a3578063e2fdcc17146103c2578063f2fde38b146103e0575f5ffd5b80638da5cb5b146102b9578063980cde3014610309578063ad3cb1cc14610328578063c10c354614610365575f5ffd5b8063715018a6116100c2578063715018a61461024857806373221a141461025c57806385fbeaa21461027b578063867003621461029a575f5ffd5b806315cfc405146100e85780634f1ef2861461021157806352d1902d14610226575b5f5ffd5b3480156100f3575f5ffd5b5061019a610102366004610e58565b6040805160a0810182525f80825260208201819052918101829052606081018290526080810191909152506001600160a01b03165f90815260016020818152604092839020835160a08101855281546001600160401b038082168352600160401b8204811694830194909452600160801b8104841695820195909552600160c01b909404821660608501529091015416608082015290565b60405161020891905f60a0820190506001600160401b0383511682526001600160401b0360208401511660208301526001600160401b0360408401511660408301526001600160401b0360608401511660608301526001600160401b03608084015116608083015292915050565b60405180910390f35b61022461021f366004610e8c565b6103ff565b005b348015610231575f5ffd5b5061023a61041e565b604051908152602001610208565b348015610253575f5ffd5b50610224610439565b348015610267575f5ffd5b50610224610276366004610e58565b61044c565b348015610286575f5ffd5b50610224610295366004610e58565b61050d565b3480156102a5575f5ffd5b506102246102b4366004610e58565b6105ce565b3480156102c4575f5ffd5b507f9016d09d72d40fdae2fd8ceac6b6234c7706214fd39c1cd1e609a0528c199300546001600160a01b03165b6040516001600160a01b039091168152602001610208565b348015610314575f5ffd5b50610224610323366004610e58565b610688565b348015610333575f5ffd5b50610358604051806040016040528060058152602001640352e302e360dc1b81525081565b6040516102089190610f4d565b348015610370575f5ffd5b5061022461037f366004610e58565b610749565b34801561038f575f5ffd5b5061022461039e366004610e58565b610798565b3480156103ae575f5ffd5b506102246103bd366004610e58565b61088f565b3480156103cd575f5ffd5b505f546102f1906001600160a01b031681565b3480156103eb575f5ffd5b506102246103fa366004610e58565b61094b565b61040761098d565b61041082610a31565b61041a8282610a39565b5050565b5f610427610afa565b505f516020610fc55f395f51905f5290565b610441610b43565b61044a5f610b9e565b565b5f546001600160a01b0316331461047657604051637e223fb160e11b815260040160405180910390fd5b6001600160a01b0381165f90815260016020819052604090912080546018906104b0908490600160c01b90046001600160401b0316610f82565b92506101000a8154816001600160401b0302191690836001600160401b03160217905550806001600160a01b03167fdb0f390ca8832d6aaa5f67277ed137989c043f3328b13985d350e583efef50d560405160405180910390a250565b5f546001600160a01b0316331461053757604051637e223fb160e11b815260040160405180910390fd5b6001600160a01b0381165f9081526001602081905260409091208054600890610571908490600160401b90046001600160401b0316610f82565b92506101000a8154816001600160401b0302191690836001600160401b03160217905550806001600160a01b03167f98dd23d26a498be78e053bb1e40405ef5d5ea5baad13c40cee365d617c58b53860405160405180910390a250565b5f546001600160a01b031633146105f857604051637e223fb160e11b815260040160405180910390fd5b6001600160a01b0381165f908152600160208190526040822080549192909161062b9084906001600160401b0316610f82565b92506101000a8154816001600160401b0302191690836001600160401b03160217905550806001600160a01b03167f30191a8bd50888a2cad94105fed02948b02c6c27b79be3bbf720b4c6c9c2504860405160405180910390a250565b5f546001600160a01b031633146106b257604051637e223fb160e11b815260040160405180910390fd5b6001600160a01b0381165f90815260016020819052604090912080546010906106ec908490600160801b90046001600160401b0316610f82565b92506101000a8154816001600160401b0302191690836001600160401b03160217905550806001600160a01b03167f21a8b390912fa548fc7837bfb7335a2271241f1d150f157470218b9bd7f7cd5a60405160405180910390a250565b610751610b43565b5f80546001600160a01b0319166001600160a01b038316908117825560405190917fa585aec3a6cb0e1a084ed18c7638024e40cc3e3ea815166e2cb6fc17d7f1392b91a250565b5f6107a1610c0e565b805490915060ff600160401b82041615906001600160401b03165f811580156107c75750825b90505f826001600160401b031660011480156107e25750303b155b9050811580156107f0575080155b1561080e5760405163f92ee8a960e01b815260040160405180910390fd5b845467ffffffffffffffff19166001178555831561083857845460ff60401b1916600160401b1785555b61084186610c38565b831561088757845460ff60401b19168555604051600181527fc7f505b2f371ae2175ee4913f4499e1f2633a7b5936321eed1cdaeb6115181d29060200160405180910390a15b505050505050565b5f546001600160a01b031633146108b957604051637e223fb160e11b815260040160405180910390fd5b6001600160a01b0381165f908152600160208190526040822081018054919290916108ee9084906001600160401b0316610f82565b92506101000a8154816001600160401b0302191690836001600160401b03160217905550806001600160a01b03167fc7833c2404ae60dc97a077c20e737a230ff5444d8840a04ebddec0af1646eca060405160405180910390a250565b610953610b43565b6001600160a01b03811661098157604051631e4fbdf760e01b81525f60048201526024015b60405180910390fd5b61098a81610b9e565b50565b306001600160a01b037f0000000000000000000000000000000000000000000000000000000000000000161480610a1357507f00000000000000000000000000000000000000000000000000000000000000006001600160a01b0316610a075f516020610fc55f395f51905f52546001600160a01b031690565b6001600160a01b031614155b1561044a5760405163703e46dd60e11b815260040160405180910390fd5b61098a610b43565b816001600160a01b03166352d1902d6040518163ffffffff1660e01b8152600401602060405180830381865afa925050508015610a93575060408051601f3d908101601f19168201909252610a9091810190610fad565b60015b610abb57604051634c9c8ce360e01b81526001600160a01b0383166004820152602401610978565b5f516020610fc55f395f51905f528114610aeb57604051632a87526960e21b815260048101829052602401610978565b610af58383610c49565b505050565b306001600160a01b037f0000000000000000000000000000000000000000000000000000000000000000161461044a5760405163703e46dd60e11b815260040160405180910390fd5b33610b757f9016d09d72d40fdae2fd8ceac6b6234c7706214fd39c1cd1e609a0528c199300546001600160a01b031690565b6001600160a01b03161461044a5760405163118cdaa760e01b8152336004820152602401610978565b7f9016d09d72d40fdae2fd8ceac6b6234c7706214fd39c1cd1e609a0528c19930080546001600160a01b031981166001600160a01b03848116918217845560405192169182907f8be0079c531659141344cd1fd0a4f28419497f9722a3daafe3b4186f6b6457e0905f90a3505050565b5f807ff0c57e16840df040f15088dc2f81fe391c3923bec73e23a9662efc9c229c6a005b92915050565b610c40610c9e565b61098a81610cc3565b610c5282610ccb565b6040516001600160a01b038316907fbc7cd75a20ee27fd9adebab32041f755214dbc6bffa90cc0225b39da2e5c2d3b905f90a2805115610c9657610af58282610d2e565b61041a610dce565b610ca6610ded565b61044a57604051631afcd79f60e31b815260040160405180910390fd5b610953610c9e565b806001600160a01b03163b5f03610d0057604051634c9c8ce360e01b81526001600160a01b0382166004820152602401610978565b5f516020610fc55f395f51905f5280546001600160a01b0319166001600160a01b0392909216919091179055565b60605f610d3b8484610e06565b9050808015610d5c57505f3d1180610d5c57505f846001600160a01b03163b115b15610d7157610d69610e19565b915050610c32565b8015610d9b57604051639996b31560e01b81526001600160a01b0385166004820152602401610978565b3d15610dae57610da9610e32565b610dc7565b60405163d6bda27560e01b815260040160405180910390fd5b5092915050565b341561044a5760405163b398979f60e01b815260040160405180910390fd5b5f610df6610c0e565b54600160401b900460ff16919050565b5f5f5f835160208501865af49392505050565b6040513d81523d5f602083013e3d602001810160405290565b6040513d5f823e3d81fd5b80356001600160a01b0381168114610e53575f5ffd5b919050565b5f60208284031215610e68575f5ffd5b610e7182610e3d565b9392505050565b634e487b7160e01b5f52604160045260245ffd5b5f5f60408385031215610e9d575f5ffd5b610ea683610e3d565b915060208301356001600160401b03811115610ec0575f5ffd5b8301601f81018513610ed0575f5ffd5b80356001600160401b03811115610ee957610ee9610e78565b604051601f8201601f19908116603f011681016001600160401b0381118282101715610f1757610f17610e78565b604052818152828201602001871015610f2e575f5ffd5b816020840160208301375f602083830101528093505050509250929050565b602081525f82518060208401528060208501604085015e5f604082850101526040601f19601f83011684010191505092915050565b6001600160401b038181168382160190811115610c3257634e487b7160e01b5f52601160045260245ffd5b5f60208284031215610fbd575f5ffd5b505191905056fe360894a13ba1a3210667c828492db98dca3e2076cc3735a920a3ca505d382bbca264697066735822122048097b77687d9a3a9b53d57ce17fbd58cb3cb800cd9611f357af8ffe56cb1c8c64736f6c634300081c0033",
  "linkReferences": {},
  "deployedLinkReferences": {},
  "immutableReferences": {
    "867": [
      {
        "length": 32,
        "start": 2456
      },
      {
        "length": 32,
        "start": 2497
      },
      {
        "length": 32,
        "start": 2821
      }
    ]
  },
  "inputSourceName": "project/contracts/PactlyReputation.sol",
  "buildInfoId": "solc-0_8_28-67937d71f32eabe4474442056a1e7584b9599acc"
}