{
  "_format": "hh3-artifact-1",
  "contractName": "PactlyEscrow",
  "sourceName": "contracts/PactlyEscrow.sol",
  "abi": [
    {
      "inputs": [],
      "stateMutability": "nonpayable",
      "type": "constructor"
    },
    {
      "inputs": [
        {
          "internalType": "address",
          "name": "target",
          "type": "address"
        }
      ],
      "name": "AddressEmptyCode",
      "type": "error"
    },
    {
      "inputs": [],
      "name": "AlreadyConfirmed",
      "type": "error"
    },
    {
      "inputs": [],
      "name": "AlreadyFlagged",
      "type": "error"
    },
    {
      "inputs": [],
      "name": "DateInPast",
      "type": "error"
    },
    {
      "inputs": [],
      "name": "DateNotFound",
      "type": "error"
    },
    {
      "inputs": [
        {
          "internalType": "address",
          "name": "implementation",
          "type": "address"
        }
      ],
      "name": "ERC1967InvalidImplementation",
      "type": "error"
    },
    {
      "inputs": [],
      "name": "ERC1967NonPayable",
      "type": "error"
    },
    {
      "inputs": [],
      "name": "FailedCall",
      "type": "error"
    },
    {
      "inputs": [],
      "name": "InvalidCounterparty",
      "type": "error"
    },
    {
      "inputs": [],
      "name": "InvalidInitialization",
      "type": "error"
    },
    {
      "inputs": [],
      "name": "NotInitializing",
      "type": "error"
    },
    {
      "inputs": [],
      "name": "NotParticipant",
      "type": "error"
    },
    {
      "inputs": [],
      "name": "NotProposer",
      "type": "error"
    },
    {
      "inputs": [
        {
          "internalType": "address",
          "name": "owner",
          "type": "address"
        }
      ],
      "name": "OwnableInvalidOwner",
      "type": "error"
    },
    {
      "inputs": [
        {
          "internalType": "address",
          "name": "account",
          "type": "address"
        }
      ],
      "name": "OwnableUnauthorizedAccount",
      "type": "error"
    },
    {
      "inputs": [],
      "name": "ResolveWindowOpen",
      "type": "error"
    },
    {
      "inputs": [],
      "name": "StakeRequired",
      "type": "error"
    },
    {
      "inputs": [],
      "name": "TooEarly",
      "type": "error"
    },
    {
      "inputs": [],
      "name": "TransferFailed",
      "type": "error"
    },
    {
      "inputs": [],
      "name": "UUPSUnauthorizedCallContext",
      "type": "error"
    },
    {
      "inputs": [
        {
          "internalType": "bytes32",
          "name": "slot",
          "type": "bytes32"
        }
      ],
      "name": "UUPSUnsupportedProxiableUUID",
      "type": "error"
    },
    {
      "inputs": [],
      "name": "WrongStakeAmount",
      "type": "error"
    },
    {
      "inputs": [],
      "name": "WrongStatus",
      "type": "error"
    },
    {
      "inputs": [],
      "name": "ZeroAddress",
      "type": "error"
    },
    {
      "anonymous": false,
      "inputs": [
        {
          "indexed": true,
          "internalType": "uint256",
          "name": "dateId",
          "type": "uint256"
        },
        {
          "indexed": true,
          "internalType": "address",
          "name": "user",
          "type": "address"
        },
        {
          "indexed": false,
          "internalType": "enum PactlyEscrow.Confirmation",
          "name": "choice",
          "type": "uint8"
        }
      ],
      "name": "Confirmed",
      "type": "event"
    },
    {
      "anonymous": false,
      "inputs": [
        {
          "indexed": true,
          "internalType": "uint256",
          "name": "dateId",
          "type": "uint256"
        },
        {
          "indexed": true,
          "internalType": "address",
          "name": "counterparty",
          "type": "address"
        }
      ],
      "name": "DateAccepted",
      "type": "event"
    },
    {
      "anonymous": false,
      "inputs": [
        {
          "indexed": true,
          "internalType": "uint256",
          "name": "dateId",
          "type": "uint256"
        }
      ],
      "name": "DateCancelled",
      "type": "event"
    },
    {
      "anonymous": false,
      "inputs": [
        {
          "indexed": true,
          "internalType": "uint256",
          "name": "dateId",
          "type": "uint256"
        },
        {
          "indexed": true,
          "internalType": "address",
          "name": "proposer",
          "type": "address"
        },
        {
          "indexed": true,
          "internalType": "address",
          "name": "counterparty",
          "type": "address"
        },
        {
          "indexed": false,
          "internalType": "uint256",
          "name": "stakeAmount",
          "type": "uint256"
        },
        {
          "indexed": false,
          "internalType": "uint256",
          "name": "dateTimestamp",
          "type": "uint256"
        },
        {
          "indexed": false,
          "internalType": "bytes32",
          "name": "detailsHash",
          "type": "bytes32"
        }
      ],
      "name": "DateProposed",
      "type": "event"
    },
    {
      "anonymous": false,
      "inputs": [
        {
          "indexed": true,
          "internalType": "uint256",
          "name": "dateId",
          "type": "uint256"
        },
        {
          "indexed": false,
          "internalType": "enum PactlyEscrow.Confirmation",
          "name": "proposerConfirm",
          "type": "uint8"
        },
        {
          "indexed": false,
          "internalType": "enum PactlyEscrow.Confirmation",
          "name": "counterpartyConfirm",
          "type": "uint8"
        },
        {
          "indexed": false,
          "internalType": "bool",
          "name": "stakesReturned",
          "type": "bool"
        }
      ],
      "name": "DateResolved",
      "type": "event"
    },
    {
      "anonymous": false,
      "inputs": [
        {
          "indexed": false,
          "internalType": "uint64",
          "name": "version",
          "type": "uint64"
        }
      ],
      "name": "Initialized",
      "type": "event"
    },
    {
      "anonymous": false,
      "inputs": [
        {
          "indexed": true,
          "internalType": "address",
          "name": "previousOwner",
          "type": "address"
        },
        {
          "indexed": true,
          "internalType": "address",
          "name": "newOwner",
          "type": "address"
        }
      ],
      "name": "OwnershipTransferred",
      "type": "event"
    },
    {
      "anonymous": false,
      "inputs": [
        {
          "indexed": true,
          "internalType": "address",
          "name": "reputation",
          "type": "address"
        }
      ],
      "name": "ReputationUpdated",
      "type": "event"
    },
    {
      "anonymous": false,
      "inputs": [
        {
          "indexed": true,
          "internalType": "uint256",
          "name": "dateId",
          "type": "uint256"
        },
        {
          "indexed": true,
          "internalType": "address",
          "name": "flagger",
          "type": "address"
        },
        {
          "indexed": true,
          "internalType": "address",
          "name": "against",
          "type": "address"
        }
      ],
      "name": "SafetyFlagged",
      "type": "event"
    },
    {
      "anonymous": false,
      "inputs": [
        {
          "indexed": true,
          "internalType": "address",
          "name": "treasury",
          "type": "address"
        }
      ],
      "name": "TreasuryUpdated",
      "type": "event"
    },
    {
      "anonymous": false,
      "inputs": [
        {
          "indexed": true,
          "internalType": "address",
          "name": "implementation",
          "type": "address"
        }
      ],
      "name": "Upgraded",
      "type": "event"
    },
    {
      "inputs": [],
      "name": "RESOLVE_WINDOW",
      "outputs": [
        {
          "internalType": "uint256",
          "name": "",
          "type": "uint256"
        }
      ],
      "stateMutability": "view",
      "type": "function"
    },
    {
      "inputs": [],
      "name": "UPGRADE_INTERFACE_VERSION",
      "outputs": [
        {
          "internalType": "string",
          "name": "",
          "type": "string"
        }
      ],
      "stateMutability": "view",
      "type": "function"
    },
    {
      "inputs": [
        {
          "internalType": "uint256",
          "name": "dateId",
          "type": "uint256"
        }
      ],
      "name": "acceptDate",
      "outputs": [],
      "stateMutability": "payable",
      "type": "function"
    },
    {
      "inputs": [
        {
          "internalType": "uint256",
          "name": "dateId",
          "type": "uint256"
        }
      ],
      "name": "cancelDateBeforeAccept",
      "outputs": [],
      "stateMutability": "nonpayable",
      "type": "function"
    },
    {
      "inputs": [
        {
          "internalType": "uint256",
          "name": "dateId",
          "type": "uint256"
        }
      ],
      "name": "confirmMet",
      "outputs": [],
      "stateMutability": "nonpayable",
      "type": "function"
    },
    {
      "inputs": [
        {
          "internalType": "uint256",
          "name": "dateId",
          "type": "uint256"
        }
      ],
      "name": "flagUnsafe",
      "outputs": [],
      "stateMutability": "nonpayable",
      "type": "function"
    },
    {
      "inputs": [
        {
          "internalType": "uint256",
          "name": "dateId",
          "type": "uint256"
        }
      ],
      "name": "getDate",
      "outputs": [
        {
          "components": [
            {
              "internalType": "address",
              "name": "proposer",
              "type": "address"
            },
            {
              "internalType": "address",
              "name": "counterparty",
              "type": "address"
            },
            {
              "internalType": "uint256",
              "name": "stakeAmount",
              "type": "uint256"
            },
            {
              "internalType": "uint256",
              "name": "dateTimestamp",
              "type": "uint256"
            },
            {
              "internalType": "bytes32",
              "name": "detailsHash",
              "type": "bytes32"
            },
            {
              "internalType": "enum PactlyEscrow.DateStatus",
              "name": "status",
              "type": "uint8"
            },
            {
              "internalType": "enum PactlyEscrow.Confirmation",
              "name": "proposerConfirm",
              "type": "uint8"
            },
            {
              "internalType": "enum PactlyEscrow.Confirmation",
              "name": "counterpartyConfirm",
              "type": "uint8"
            },
            {
              "internalType": "uint256",
              "name": "resolveDeadline",
              "type": "uint256"
            },
            {
              "internalType": "bool",
              "name": "proposerSafetyRefunded",
              "type": "bool"
            },
            {
              "internalType": "bool",
              "name": "counterpartySafetyRefunded",
              "type": "bool"
            }
          ],
          "internalType": "struct PactlyEscrow.Date",
          "name": "",
          "type": "tuple"
        }
      ],
      "stateMutability": "view",
      "type": "function"
    },
    {
      "inputs": [
        {
          "internalType": "address payable",
          "name": "_treasury",
          "type": "address"
        },
        {
          "internalType": "address",
          "name": "_reputation",
          "type": "address"
        },
        {
          "internalType": "address",
          "name": "initialOwner",
          "type": "address"
        }
      ],
      "name": "initialize",
      "outputs": [],
      "stateMutability": "nonpayable",
      "type": "function"
    },
    {
      "inputs": [],
      "name": "nextDateId",
      "outputs": [
        {
          "internalType": "uint256",
          "name": "",
          "type": "uint256"
        }
      ],
      "stateMutability": "view",
      "type": "function"
    },
    {
      "inputs": [],
      "name": "owner",
      "outputs": [
        {
          "internalType": "address",
          "name": "",
          "type": "address"
        }
      ],
      "stateMutability": "view",
      "type": "function"
    },
    {
      "inputs": [
        {
          "internalType": "address",
          "name": "counterparty",
          "type": "address"
        },
        {
          "internalType": "uint256",
          "name": "dateTimestamp",
          "type": "uint256"
        },
        {
          "internalType": "bytes32",
          "name": "detailsHash",
          "type": "bytes32"
        }
      ],
      "name": "proposeDate",
      "outputs": [
        {
          "internalType": "uint256",
          "name": "dateId",
          "type": "uint256"
        }
      ],
      "stateMutability": "payable",
      "type": "function"
    },
    {
      "inputs": [],
      "name": "proxiableUUID",
      "outputs": [
        {
          "internalType": "bytes32",
          "name": "",
          "type": "bytes32"
        }
      ],
      "stateMutability": "view",
      "type": "function"
    },
    {
      "inputs": [],
      "name": "renounceOwnership",
      "outputs": [],
      "stateMutability": "nonpayable",
      "type": "function"
    },
    {
      "inputs": [
        {
          "internalType": "uint256",
          "name": "dateId",
          "type": "uint256"
        }
      ],
      "name": "reportGhost",
      "outputs": [],
      "stateMutability": "nonpayable",
      "type": "function"
    },
    {
      "inputs": [],
      "name": "reputation",
      "outputs": [
        {
          "internalType": "contract PactlyReputation",
          "name": "",
          "type": "address"
        }
      ],
      "stateMutability": "view",
      "type": "function"
    },
    {
      "inputs": [
        {
          "internalType": "uint256",
          "name": "dateId",
          "type": "uint256"
        }
      ],
      "name": "resolveDate",
      "outputs": [],
      "stateMutability": "nonpayable",
      "type": "function"
    },
    {
      "inputs": [
        {
          "internalType": "address",
          "name": "_reputation",
          "type": "address"
        }
      ],
      "name": "setReputation",
      "outputs": [],
      "stateMutability": "nonpayable",
      "type": "function"
    },
    {
      "inputs": [
        {
          "internalType": "address payable",
          "name": "_treasury",
          "type": "address"
        }
      ],
      "name": "setTreasury",
      "outputs": [],
      "stateMutability": "nonpayable",
      "type": "function"
    },
    {
      "inputs": [
        {
          "internalType": "address",
          "name": "newOwner",
          "type": "address"
        }
      ],
      "name": "transferOwnership",
      "outputs": [],
      "stateMutability": "nonpayable",
      "type": "function"
    },
    {
      "inputs": [],
      "name": "treasury",
      "outputs": [
        {
          "internalType": "address payable",
          "name": "",
          "type": "address"
        }
      ],
      "stateMutability": "view",
      "type": "function"
    },
    {
      "inputs": [
        {
          "internalType": "address",
          "name": "newImplementation",
          "type": "address"
        },
        {
          "internalType": "bytes",
          "name": "data",
          "type": "bytes"
        }
      ],
      "name": "upgradeToAndCall",
      "outputs": [],
      "stateMutability": "payable",
      "type": "function"
    }
  ],
  "bytecode": "0x60a060405230608052348015610013575f5ffd5b5061001c610021565b6100d3565b7ff0c57e16840df040f15088dc2f81fe391c3923bec73e23a9662efc9c229c6a00805468010000000000000000900460ff16156100715760405163f92ee8a960e01b815260040160405180910390fd5b80546001600160401b03908116146100d05780546001600160401b0319166001600160401b0390811782556040519081527fc7f505b2f371ae2175ee4913f4499e1f2633a7b5936321eed1cdaeb6115181d29060200160405180910390a15b50565b608051611f106100f95f395f818161149b015281816114c401526116030152611f105ff3fe608060405260043610610126575f3560e01c806389348906116100a8578063c52164c61161006d578063c52164c61461032e578063d9195a6a1461034d578063e43d476914610360578063f0f442601461037f578063f2fde38b1461039e578063f7d0e04b146103bd575f5ffd5b8063893489061461026e5780638da5cb5b1461028157806394067889146102bd578063ad3cb1cc146102d2578063c0c53b8b1461030f575f5ffd5b806352d1902d116100ee57806352d1902d146101d257806361d027b3146101e6578063715018a61461021c5780638008034814610230578063814ef0851461024f575f5ffd5b80631d947a7c1461012a57806321a8fc5f1461014b5780632b57298b1461017457806337255042146101a05780634f1ef286146101bf575b5f5ffd5b348015610135575f5ffd5b50610149610144366004611b62565b6103dc565b005b348015610156575f5ffd5b506101616202a30081565b6040519081526020015b60405180910390f35b34801561017f575f5ffd5b5061019361018e366004611b62565b6106c0565b60405161016b9190611bb1565b3480156101ab575f5ffd5b506101496101ba366004611b62565b610844565b6101496101cd366004611c94565b61090c565b3480156101dd575f5ffd5b5061016161092b565b3480156101f1575f5ffd5b505f54610204906001600160a01b031681565b6040516001600160a01b03909116815260200161016b565b348015610227575f5ffd5b50610149610946565b34801561023b575f5ffd5b5061014961024a366004611b62565b610959565b34801561025a575f5ffd5b50610149610269366004611b62565b610d26565b61016161027c366004611d5a565b610d34565b34801561028c575f5ffd5b507f9016d09d72d40fdae2fd8ceac6b6234c7706214fd39c1cd1e609a0528c199300546001600160a01b0316610204565b3480156102c8575f5ffd5b5061016160025481565b3480156102dd575f5ffd5b50610302604051806040016040528060058152602001640352e302e360dc1b81525081565b60405161016b9190611d8c565b34801561031a575f5ffd5b50610149610329366004611dc1565b611005565b348015610339575f5ffd5b50600154610204906001600160a01b031681565b61014961035b366004611b62565b61116a565b34801561036b575f5ffd5b5061014961037a366004611b62565b6112ae565b34801561038a575f5ffd5b50610149610399366004611e09565b6112b9565b3480156103a9575f5ffd5b506101496103b8366004611e09565b61132f565b3480156103c8575f5ffd5b506101496103d7366004611e09565b61136e565b5f6103e6826113e6565b90506001600582015460ff16600381111561040357610403611b79565b1461042157604051638e78f0cb60e01b815260040160405180910390fd5b600281015481546001600160a01b0316330361052257600782015460ff161561045d5760405163018f77f960e11b815260040160405180910390fd5b60078201805460ff1916600190811790915580549083015460405163cf33ae9d60e01b81526001600160a01b03918216600482015291169063cf33ae9d906024015f604051808303815f87803b1580156104b5575f5ffd5b505af11580156104c7573d5f5f3e3d5ffd5b50505060018301546040516001600160a01b039091169150339085907ff91b7af91591cc9e4a7b24e4fc8b43709736b67c3eb3568ada91642d09cf35e5905f90a4815461051d906001600160a01b031682611420565b610638565b60018201546001600160a01b0316330361061f576007820154610100900460ff16156105615760405163018f77f960e11b815260040160405180910390fd5b60078201805461ff001916610100179055600154825460405163cf33ae9d60e01b81526001600160a01b03918216600482015291169063cf33ae9d906024015f604051808303815f87803b1580156105b7575f5ffd5b505af11580156105c9573d5f5f3e3d5ffd5b505083546040516001600160a01b03909116925033915085907ff91b7af91591cc9e4a7b24e4fc8b43709736b67c3eb3568ada91642d09cf35e5905f90a4600182015461051d906001600160a01b031682611420565b60405163721c7c6760e11b815260040160405180910390fd5b600782015460ff16801561065557506007820154610100900460ff165b156106bb5760058201805460ff19166002179081905560405184917f94906b9702ccf8677b608cdeeb06961636c32bb554b0ce4e30749268c421ddf9916106b291610100810460ff90811692620100009092041690600190611e2b565b60405180910390a25b505050565b61071960408051610160810182525f8082526020820181905291810182905260608101829052608081018290529060a082019081526020015f81526020015f81525f602082018190526040820181905260609091015290565b5f8281526003602081815260409283902083516101608101855281546001600160a01b0390811682526001830154169281019290925260028101549382019390935282820154606082015260048301546080820152600583015490929160a084019160ff169081111561078e5761078e611b79565b600381111561079f5761079f611b79565b81526020016005820160019054906101000a900460ff1660028111156107c7576107c7611b79565b60028111156107d8576107d8611b79565b81526020016005820160029054906101000a900460ff16600281111561080057610800611b79565b600281111561081157610811611b79565b81526006820154602082015260079091015460ff8082161515604084015261010090910416151560609091015292915050565b5f61084e826113e6565b90505f600582015460ff16600381111561086a5761086a611b79565b1461088857604051638e78f0cb60e01b815260040160405180910390fd5b80546001600160a01b031633146108b257604051637d1b73b960e01b815260040160405180910390fd5b60028101805460058301805460ff191660031790555f91829055604051909184917f9dee2588a9e22079d2812c074f5559a42ba508c63929e3660577e5860b9628da9190a281546106bb906001600160a01b031682611420565b610914611490565b61091d82611534565b610927828261153c565b5050565b5f6109346115f8565b505f516020611ebb5f395f51905f5290565b61094e611641565b6109575f61169c565b565b5f610963826113e6565b90506001600582015460ff16600381111561098057610980611b79565b1461099e57604051638e78f0cb60e01b815260040160405180910390fd5b80600601544210156109c3576040516303c3adc160e21b815260040160405180910390fd5b60058101805460028084015460ff19831690911790925560ff61010082048116926201000090920416905f6109f8848461170c565b9050857f94906b9702ccf8677b608cdeeb06961636c32bb554b0ce4e30749268c421ddf9858584604051610a2e93929190611e2b565b60405180910390a26001846002811115610a4a57610a4a611b79565b148015610a6857506001836002811115610a6657610a66611b79565b145b15610b2b576001548554604051630980cde360e41b81526001600160a01b03918216600482015291169063980cde30906024015f604051808303815f87803b158015610ab2575f5ffd5b505af1158015610ac4573d5f5f3e3d5ffd5b50506001805490880154604051630980cde360e41b81526001600160a01b0391821660048201529116925063980cde3091506024015f604051808303815f87803b158015610b10575f5ffd5b505af1158015610b22573d5f5f3e3d5ffd5b50505050610c4c565b5f846002811115610b3e57610b3e611b79565b148015610b5b57505f836002811115610b5957610b59611b79565b145b610c4c576001846002811115610b7357610b73611b79565b14610bd4576001548554604051631cc8868560e21b81526001600160a01b0391821660048201529116906373221a14906024015f604051808303815f87803b158015610bbd575f5ffd5b505af1158015610bcf573d5f5f3e3d5ffd5b505050505b6001836002811115610be857610be8611b79565b14610c4c576001805490860154604051631cc8868560e21b81526001600160a01b0391821660048201529116906373221a14906024015f604051808303815f87803b158015610c35575f5ffd5b505af1158015610c47573d5f5f3e3d5ffd5b505050505b8015610cc85760078501545f9060ff16610c665782610c68565b5f5b60078701549091505f90610100900460ff16610c845783610c86565b5f5b90508115610ca3578654610ca3906001600160a01b031683611420565b8015610cc1576001870154610cc1906001600160a01b031682611420565b5050610d1e565b60078501545f9060ff16610ce357610ce08382611e6a565b90505b6007860154610100900460ff16610d0157610cfe8382611e6a565b90505b8015610d1c575f54610d1c906001600160a01b031682611420565b505b505050505050565b610d31816001611792565b50565b5f6001600160a01b0384161580610d5357506001600160a01b03841633145b15610d7157604051634f1332db60e01b815260040160405180910390fd5b345f03610d91576040516337c2e99960e21b815260040160405180910390fd5b428311610db15760405163b674b87f60e01b815260040160405180910390fd5b60028054905f610dc083611e7d565b919050559050604051806101600160405280336001600160a01b03168152602001856001600160a01b031681526020013481526020018481526020018381526020015f6003811115610e1457610e14611b79565b81526020015f81526020015f81525f602080830182905260408084018390526060938401839052858352600380835292819020855181546001600160a01b039182166001600160a01b03199182161783559387015160018381018054929093169190951617905590850151600282015592840151838301556080840151600484015560a08401516005840180549193909260ff1990921691908490811115610ebe57610ebe611b79565b021790555060c082015160058201805461ff001916610100836002811115610ee857610ee8611b79565b021790555060e082015160058201805462ff0000191662010000836002811115610f1457610f14611b79565b0217905550610100828101516006830155610120830151600790920180546101409094015161ffff1990941692151561ff001916929092179215150291909117905560015460405163433801b160e11b81523360048201526001600160a01b03909116906386700362906024015f604051808303815f87803b158015610f98575f5ffd5b505af1158015610faa573d5f5f3e3d5ffd5b505060408051348152602081018790529081018590526001600160a01b038716925033915083907f5a6550e125d1f0daa88433e85fe8b551c6492b4e18a2bb5a95b0f0fabb90fee59060600160405180910390a49392505050565b5f61100e611935565b805490915060ff600160401b820416159067ffffffffffffffff165f811580156110355750825b90505f8267ffffffffffffffff1660011480156110515750303b155b90508115801561105f575080155b1561107d5760405163f92ee8a960e01b815260040160405180910390fd5b845467ffffffffffffffff1916600117855583156110a757845460ff60401b1916600160401b1785555b6001600160a01b03881615806110c457506001600160a01b038716155b156110e25760405163d92e233d60e01b815260040160405180910390fd5b6110eb8661195d565b5f80546001600160a01b03808b166001600160a01b03199283161790925560018054928a1692909116919091179055831561116057845460ff60401b19168555604051600181527fc7f505b2f371ae2175ee4913f4499e1f2633a7b5936321eed1cdaeb6115181d29060200160405180910390a15b5050505050505050565b5f611174826113e6565b90505f600582015460ff16600381111561119057611190611b79565b146111ae57604051638e78f0cb60e01b815260040160405180910390fd5b60018101546001600160a01b031633146111db5760405163721c7c6760e11b815260040160405180910390fd5b806002015434146111ff5760405163356a807560e21b815260040160405180910390fd5b60058101805460ff191660011790556003810154611221906202a30090611e6a565b60068201556001546040516342fdf55160e11b81523360048201526001600160a01b03909116906385fbeaa2906024015f604051808303815f87803b158015611268575f5ffd5b505af115801561127a573d5f5f3e3d5ffd5b50506040513392508491507f5c575678e3d3b723af7a388c1c9c086dc74418d7b9c6dbf0baa0dd546d66ec86905f90a35050565b610d31816002611792565b6112c1611641565b6001600160a01b0381166112e85760405163d92e233d60e01b815260040160405180910390fd5b5f80546001600160a01b0319166001600160a01b038316908117825560405190917f7dae230f18360d76a040c81f050aa14eb9d6dc7901b20fc5d855e2a20fe814d191a250565b611337611641565b6001600160a01b03811661136557604051631e4fbdf760e01b81525f60048201526024015b60405180910390fd5b610d318161169c565b611376611641565b6001600160a01b03811661139d5760405163d92e233d60e01b815260040160405180910390fd5b600180546001600160a01b0319166001600160a01b0383169081179091556040517fe127cf589a3879da0156d4a24f43b44f65cfa3570de594806b0bfa2fcf06884f905f90a250565b5f81815260036020526040902080546001600160a01b031661141b57604051637ed6e89f60e01b815260040160405180910390fd5b919050565b5f826001600160a01b0316826040515f6040518083038185875af1925050503d805f8114611469576040519150601f19603f3d011682016040523d82523d5f602084013e61146e565b606091505b50509050806106bb576040516312171d8360e31b815260040160405180910390fd5b306001600160a01b037f000000000000000000000000000000000000000000000000000000000000000016148061151657507f00000000000000000000000000000000000000000000000000000000000000006001600160a01b031661150a5f516020611ebb5f395f51905f52546001600160a01b031690565b6001600160a01b031614155b156109575760405163703e46dd60e11b815260040160405180910390fd5b610d31611641565b816001600160a01b03166352d1902d6040518163ffffffff1660e01b8152600401602060405180830381865afa925050508015611596575060408051601f3d908101601f1916820190925261159391810190611e95565b60015b6115be57604051634c9c8ce360e01b81526001600160a01b038316600482015260240161135c565b5f516020611ebb5f395f51905f5281146115ee57604051632a87526960e21b81526004810182905260240161135c565b6106bb838361196e565b306001600160a01b037f000000000000000000000000000000000000000000000000000000000000000016146109575760405163703e46dd60e11b815260040160405180910390fd5b336116737f9016d09d72d40fdae2fd8ceac6b6234c7706214fd39c1cd1e609a0528c199300546001600160a01b031690565b6001600160a01b0316146109575760405163118cdaa760e01b815233600482015260240161135c565b7f9016d09d72d40fdae2fd8ceac6b6234c7706214fd39c1cd1e609a0528c19930080546001600160a01b031981166001600160a01b03848116918217845560405192169182907f8be0079c531659141344cd1fd0a4f28419497f9722a3daafe3b4186f6b6457e0905f90a3505050565b5f600183600281111561172157611721611b79565b14801561173f5750600182600281111561173d5761173d611b79565b145b1561174c5750600161178c565b5f83600281111561175f5761175f611b79565b14801561177c57505f82600281111561177a5761177a611b79565b145b156117895750600161178c565b505f5b92915050565b5f61179c836113e6565b90506001600582015460ff1660038111156117b9576117b9611b79565b146117d757604051638e78f0cb60e01b815260040160405180910390fd5b80600301544210156117fc5760405163085de62560e01b815260040160405180910390fd5b80546001600160a01b03163303611877575f6005820154610100900460ff16600281111561182c5761182c611b79565b1461184a57604051635f8a9c0b60e01b815260040160405180910390fd5b60058101805483919061ff00191661010083600281111561186d5761186d611b79565b02179055506118ee565b60018101546001600160a01b0316330361061f575f600582015462010000900460ff1660028111156118ab576118ab611b79565b146118c957604051635f8a9c0b60e01b815260040160405180910390fd5b60058101805483919062ff000019166201000083600281111561186d5761186d611b79565b336001600160a01b0316837f2d76b03614ebad52a393a1ae4717473b937f663af3ba4ddf9f7919bb58d38246846040516119289190611eac565b60405180910390a3505050565b5f807ff0c57e16840df040f15088dc2f81fe391c3923bec73e23a9662efc9c229c6a0061178c565b6119656119c3565b610d31816119e8565b611977826119f0565b6040516001600160a01b038316907fbc7cd75a20ee27fd9adebab32041f755214dbc6bffa90cc0225b39da2e5c2d3b905f90a28051156119bb576106bb8282611a53565b610927611af3565b6119cb611b12565b61095757604051631afcd79f60e31b815260040160405180910390fd5b6113376119c3565b806001600160a01b03163b5f03611a2557604051634c9c8ce360e01b81526001600160a01b038216600482015260240161135c565b5f516020611ebb5f395f51905f5280546001600160a01b0319166001600160a01b0392909216919091179055565b60605f611a608484611b2b565b9050808015611a8157505f3d1180611a8157505f846001600160a01b03163b115b15611a9657611a8e611b3e565b91505061178c565b8015611ac057604051639996b31560e01b81526001600160a01b038516600482015260240161135c565b3d15611ad357611ace611b57565b611aec565b60405163d6bda27560e01b815260040160405180910390fd5b5092915050565b34156109575760405163b398979f60e01b815260040160405180910390fd5b5f611b1b611935565b54600160401b900460ff16919050565b5f5f5f835160208501865af49392505050565b6040513d81523d5f602083013e3d602001810160405290565b6040513d5f823e3d81fd5b5f60208284031215611b72575f5ffd5b5035919050565b634e487b7160e01b5f52602160045260245ffd5b60048110611b9d57611b9d611b79565b9052565b60038110611b9d57611b9d611b79565b81516001600160a01b0316815261016081016020830151611bdd60208401826001600160a01b03169052565b5060408301516040830152606083015160608301526080830151608083015260a0830151611c0e60a0840182611b8d565b5060c0830151611c2160c0840182611ba1565b5060e0830151611c3460e0840182611ba1565b50610100830151610100830152610120830151611c5661012084018215159052565b50610140830151611aec61014084018215159052565b6001600160a01b0381168114610d31575f5ffd5b634e487b7160e01b5f52604160045260245ffd5b5f5f60408385031215611ca5575f5ffd5b8235611cb081611c6c565b9150602083013567ffffffffffffffff811115611ccb575f5ffd5b8301601f81018513611cdb575f5ffd5b803567ffffffffffffffff811115611cf557611cf5611c80565b604051601f8201601f19908116603f0116810167ffffffffffffffff81118282101715611d2457611d24611c80565b604052818152828201602001871015611d3b575f5ffd5b816020840160208301375f602083830101528093505050509250929050565b5f5f5f60608486031215611d6c575f5ffd5b8335611d7781611c6c565b95602085013595506040909401359392505050565b602081525f82518060208401528060208501604085015e5f604082850101526040601f19601f83011684010191505092915050565b5f5f5f60608486031215611dd3575f5ffd5b8335611dde81611c6c565b92506020840135611dee81611c6c565b91506040840135611dfe81611c6c565b809150509250925092565b5f60208284031215611e19575f5ffd5b8135611e2481611c6c565b9392505050565b60608101611e398286611ba1565b611e466020830185611ba1565b8215156040830152949350505050565b634e487b7160e01b5f52601160045260245ffd5b8082018082111561178c5761178c611e56565b5f60018201611e8e57611e8e611e56565b5060010190565b5f60208284031215611ea5575f5ffd5b5051919050565b6020810161178c8284611ba156fe360894a13ba1a3210667c828492db98dca3e2076cc3735a920a3ca505d382bbca2646970667358221220ef71155cd6f25f5cbbc994b9af92d1b58eb1118c7564b93d2e1a266640d5fd3d64736f6c634300081c0033",
  "linkReferences": {},
  "deployedLinkReferences": {},
  "immutableReferences": {
    "867": [
      {
        "length": 32,
        "start": 5275
      },
      {
        "length": 32,
        "start": 5316
      },
      {
        "length": 32,
        "start": 5635
      }
    ]
  },
  "inputSourceName": "project/contracts/PactlyEscrow.sol",
  "buildInfoId": "solc-0_8_28-67c2573339c0fe22ea87f52874cc74e07e9d3ca5"
}